{
  "contractName": "UserContract",
  "abi": [
    {
      "constant": false,
      "inputs": [
        {
          "internalType": "bytes32",
          "name": "dealerId",
          "type": "bytes32"
        },
        {
          "internalType": "bytes32",
          "name": "adr",
          "type": "bytes32"
        }
      ],
      "name": "addDealerEmployee",
      "outputs": [],
      "payable": false,
      "stateMutability": "nonpayable",
      "type": "function"
    },
    {
      "constant": false,
      "inputs": [
        {
          "internalType": "string",
          "name": "serviceName",
          "type": "string"
        }
      ],
      "name": "addService",
      "outputs": [],
      "payable": false,
      "stateMutability": "nonpayable",
      "type": "function"
    },
    {
      "constant": false,
      "inputs": [
        {
          "internalType": "string",
          "name": "serviceName",
          "type": "string"
        },
        {
          "internalType": "string",
          "name": "subServiceName",
          "type": "string"
        }
      ],
      "name": "addSubService",
      "outputs": [],
      "payable": false,
      "stateMutability": "nonpayable",
      "type": "function"
    },
    {
      "constant": false,
      "inputs": [
        {
          "internalType": "bytes32",
          "name": "adr",
          "type": "bytes32"
        }
      ],
      "name": "approveApplication",
      "outputs": [],
      "payable": false,
      "stateMutability": "nonpayable",
      "type": "function"
    },
    {
      "constant": false,
      "inputs": [
        {
          "components": [
            {
              "internalType": "string",
              "name": "dealerName",
              "type": "string"
            },
            {
              "internalType": "string",
              "name": "firstName",
              "type": "string"
            },
            {
              "internalType": "string",
              "name": "lastName",
              "type": "string"
            },
            {
              "internalType": "string",
              "name": "addr",
              "type": "string"
            },
            {
              "internalType": "string",
              "name": "location",
              "type": "string"
            },
            {
              "internalType": "string",
              "name": "phoneNo",
              "type": "string"
            },
            {
              "internalType": "string",
              "name": "bestSeller",
              "type": "string"
            },
            {
              "internalType": "string",
              "name": "promotion",
              "type": "string"
            },
            {
              "internalType": "string",
              "name": "otherServices",
              "type": "string"
            },
            {
              "internalType": "string[]",
              "name": "availableServices",
              "type": "string[]"
            },
            {
              "internalType": "string[][]",
              "name": "availableSubServices",
              "type": "string[][]"
            }
          ],
          "internalType": "struct DealerContract.DealerInfo",
          "name": "info",
          "type": "tuple"
        },
        {
          "internalType": "bytes32",
          "name": "id",
          "type": "bytes32"
        }
      ],
      "name": "createDealerApplication",
      "outputs": [],
      "payable": false,
      "stateMutability": "nonpayable",
      "type": "function"
    },
    {
      "constant": false,
      "inputs": [
        {
          "internalType": "string",
          "name": "serviceName",
          "type": "string"
        }
      ],
      "name": "deleteService",
      "outputs": [],
      "payable": false,
      "stateMutability": "nonpayable",
      "type": "function"
    },
    {
      "constant": false,
      "inputs": [
        {
          "internalType": "string",
          "name": "serviceName",
          "type": "string"
        },
        {
          "internalType": "string",
          "name": "subServiceName",
          "type": "string"
        }
      ],
      "name": "deleteSubService",
      "outputs": [],
      "payable": false,
      "stateMutability": "nonpayable",
      "type": "function"
    },
    {
      "constant": false,
      "inputs": [
        {
          "components": [
            {
              "internalType": "string",
              "name": "dealerName",
              "type": "string"
            },
            {
              "internalType": "string",
              "name": "firstName",
              "type": "string"
            },
            {
              "internalType": "string",
              "name": "lastName",
              "type": "string"
            },
            {
              "internalType": "string",
              "name": "addr",
              "type": "string"
            },
            {
              "internalType": "string",
              "name": "location",
              "type": "string"
            },
            {
              "internalType": "string",
              "name": "phoneNo",
              "type": "string"
            },
            {
              "internalType": "string",
              "name": "bestSeller",
              "type": "string"
            },
            {
              "internalType": "string",
              "name": "promotion",
              "type": "string"
            },
            {
              "internalType": "string",
              "name": "otherServices",
              "type": "string"
            },
            {
              "internalType": "string[]",
              "name": "availableServices",
              "type": "string[]"
            },
            {
              "internalType": "string[][]",
              "name": "availableSubServices",
              "type": "string[][]"
            }
          ],
          "internalType": "struct DealerContract.DealerInfo",
          "name": "info",
          "type": "tuple"
        },
        {
          "internalType": "bytes32",
          "name": "id",
          "type": "bytes32"
        }
      ],
      "name": "editDealerInfo",
      "outputs": [],
      "payable": false,
      "stateMutability": "nonpayable",
      "type": "function"
    },
    {
      "constant": false,
      "inputs": [
        {
          "internalType": "string",
          "name": "oldName",
          "type": "string"
        },
        {
          "internalType": "string",
          "name": "newName",
          "type": "string"
        }
      ],
      "name": "editServiceName",
      "outputs": [],
      "payable": false,
      "stateMutability": "nonpayable",
      "type": "function"
    },
    {
      "constant": false,
      "inputs": [
        {
          "internalType": "string",
          "name": "serviceName",
          "type": "string"
        },
        {
          "internalType": "string",
          "name": "oldName",
          "type": "string"
        },
        {
          "internalType": "string",
          "name": "newName",
          "type": "string"
        }
      ],
      "name": "editSubServiceName",
      "outputs": [],
      "payable": false,
      "stateMutability": "nonpayable",
      "type": "function"
    },
    {
      "constant": true,
      "inputs": [],
      "name": "getAllDealerApplications",
      "outputs": [
        {
          "internalType": "bytes32[]",
          "name": "",
          "type": "bytes32[]"
        }
      ],
      "payable": false,
      "stateMutability": "view",
      "type": "function"
    },
    {
      "constant": true,
      "inputs": [
        {
          "internalType": "bytes32",
          "name": "id",
          "type": "bytes32"
        }
      ],
      "name": "getDealerInfo",
      "outputs": [
        {
          "components": [
            {
              "internalType": "string",
              "name": "dealerName",
              "type": "string"
            },
            {
              "internalType": "string",
              "name": "firstName",
              "type": "string"
            },
            {
              "internalType": "string",
              "name": "lastName",
              "type": "string"
            },
            {
              "internalType": "string",
              "name": "addr",
              "type": "string"
            },
            {
              "internalType": "string",
              "name": "location",
              "type": "string"
            },
            {
              "internalType": "string",
              "name": "phoneNo",
              "type": "string"
            },
            {
              "internalType": "string",
              "name": "bestSeller",
              "type": "string"
            },
            {
              "internalType": "string",
              "name": "promotion",
              "type": "string"
            },
            {
              "internalType": "string",
              "name": "otherServices",
              "type": "string"
            },
            {
              "internalType": "string[]",
              "name": "availableServices",
              "type": "string[]"
            },
            {
              "internalType": "string[][]",
              "name": "availableSubServices",
              "type": "string[][]"
            }
          ],
          "internalType": "struct DealerContract.DealerInfo",
          "name": "",
          "type": "tuple"
        }
      ],
      "payable": false,
      "stateMutability": "view",
      "type": "function"
    },
    {
      "constant": true,
      "inputs": [
        {
          "internalType": "string",
          "name": "id",
          "type": "string"
        }
      ],
      "name": "getHash",
      "outputs": [
        {
          "internalType": "bytes32",
          "name": "",
          "type": "bytes32"
        }
      ],
      "payable": false,
      "stateMutability": "pure",
      "type": "function"
    },
    {
      "constant": true,
      "inputs": [],
      "name": "getServices",
      "outputs": [
        {
          "internalType": "string[]",
          "name": "",
          "type": "string[]"
        }
      ],
      "payable": false,
      "stateMutability": "view",
      "type": "function"
    },
    {
      "constant": true,
      "inputs": [
        {
          "internalType": "string",
          "name": "serviceName",
          "type": "string"
        }
      ],
      "name": "getSubServices",
      "outputs": [
        {
          "internalType": "string[]",
          "name": "",
          "type": "string[]"
        }
      ],
      "payable": false,
      "stateMutability": "view",
      "type": "function"
    },
    {
      "constant": true,
      "inputs": [
        {
          "internalType": "bytes32",
          "name": "adr",
          "type": "bytes32"
        }
      ],
      "name": "isVerified",
      "outputs": [
        {
          "internalType": "bool",
          "name": "",
          "type": "bool"
        }
      ],
      "payable": false,
      "stateMutability": "view",
      "type": "function"
    },
    {
      "constant": false,
      "inputs": [
        {
          "internalType": "bytes32",
          "name": "dealershipId",
          "type": "bytes32"
        },
        {
          "internalType": "bytes32",
          "name": "otherId",
          "type": "bytes32"
        }
      ],
      "name": "transferDealershipOwner",
      "outputs": [],
      "payable": false,
      "stateMutability": "nonpayable",
      "type": "function"
    },
    {
      "constant": false,
      "inputs": [
        {
          "internalType": "address",
          "name": "newOwner",
          "type": "address"
        }
      ],
      "name": "transferOwner",
      "outputs": [],
      "payable": false,
      "stateMutability": "nonpayable",
      "type": "function"
    },
    {
      "constant": false,
      "inputs": [
        {
          "internalType": "bytes32",
          "name": "userId",
          "type": "bytes32"
        },
        {
          "components": [
            {
              "internalType": "string",
              "name": "firstName",
              "type": "string"
            },
            {
              "internalType": "string",
              "name": "lastName",
              "type": "string"
            },
            {
              "internalType": "string",
              "name": "adr",
              "type": "string"
            },
            {
              "internalType": "string",
              "name": "phNo",
              "type": "string"
            },
            {
              "internalType": "string",
              "name": "email",
              "type": "string"
            }
          ],
          "internalType": "struct UserContract.UserInfo",
          "name": "info",
          "type": "tuple"
        }
      ],
      "name": "editUserInfo",
      "outputs": [],
      "payable": false,
      "stateMutability": "nonpayable",
      "type": "function"
    },
    {
      "constant": true,
      "inputs": [
        {
          "internalType": "bytes32",
          "name": "userId",
          "type": "bytes32"
        }
      ],
      "name": "getUserInfo",
      "outputs": [
        {
          "components": [
            {
              "internalType": "string",
              "name": "firstName",
              "type": "string"
            },
            {
              "internalType": "string",
              "name": "lastName",
              "type": "string"
            },
            {
              "internalType": "string",
              "name": "adr",
              "type": "string"
            },
            {
              "internalType": "string",
              "name": "phNo",
              "type": "string"
            },
            {
              "internalType": "string",
              "name": "email",
              "type": "string"
            }
          ],
          "internalType": "struct UserContract.UserInfo",
          "name": "",
          "type": "tuple"
        }
      ],
      "payable": false,
      "stateMutability": "view",
      "type": "function"
    },
    {
      "constant": false,
      "inputs": [
        {
          "internalType": "bytes32",
          "name": "userId",
          "type": "bytes32"
        },
        {
          "internalType": "string",
          "name": "noPlate",
          "type": "string"
        },
        {
          "components": [
            {
              "internalType": "string",
              "name": "brand",
              "type": "string"
            },
            {
              "internalType": "string",
              "name": "model",
              "type": "string"
            },
            {
              "internalType": "string",
              "name": "year",
              "type": "string"
            }
          ],
          "internalType": "struct UserContract.CarInfo",
          "name": "carInfo",
          "type": "tuple"
        }
      ],
      "name": "editCarDetails",
      "outputs": [],
      "payable": false,
      "stateMutability": "nonpayable",
      "type": "function"
    },
    {
      "constant": true,
      "inputs": [
        {
          "internalType": "bytes32",
          "name": "userId",
          "type": "bytes32"
        }
      ],
      "name": "getCars",
      "outputs": [
        {
          "components": [
            {
              "internalType": "string",
              "name": "brand",
              "type": "string"
            },
            {
              "internalType": "string",
              "name": "model",
              "type": "string"
            },
            {
              "internalType": "string",
              "name": "year",
              "type": "string"
            }
          ],
          "internalType": "struct UserContract.CarInfo[]",
          "name": "",
          "type": "tuple[]"
        }
      ],
      "payable": false,
      "stateMutability": "view",
      "type": "function"
    },
    {
      "constant": false,
      "inputs": [
        {
          "internalType": "bytes32",
          "name": "dealerId",
          "type": "bytes32"
        },
        {
          "internalType": "bytes32",
          "name": "id",
          "type": "bytes32"
        },
        {
          "internalType": "string",
          "name": "noPlate",
          "type": "string"
        },
        {
          "internalType": "string[]",
          "name": "services",
          "type": "string[]"
        },
        {
          "internalType": "string[][]",
          "name": "subservices",
          "type": "string[][]"
        },
        {
          "internalType": "string",
          "name": "comment",
          "type": "string"
        }
      ],
      "name": "insertRecord",
      "outputs": [],
      "payable": false,
      "stateMutability": "nonpayable",
      "type": "function"
    },
    {
      "constant": true,
      "inputs": [
        {
          "internalType": "bytes32",
          "name": "id",
          "type": "bytes32"
        },
        {
          "internalType": "string",
          "name": "noPlate",
          "type": "string"
        }
      ],
      "name": "getRecords",
      "outputs": [
        {
          "components": [
            {
              "internalType": "string[]",
              "name": "services",
              "type": "string[]"
            },
            {
              "internalType": "string[][]",
              "name": "subservices",
              "type": "string[][]"
            },
            {
              "internalType": "string",
              "name": "comment",
              "type": "string"
            }
          ],
          "internalType": "struct UserContract.RecordInternal[]",
          "name": "",
          "type": "tuple[]"
        }
      ],
      "payable": false,
      "stateMutability": "view",
      "type": "function"
    }
  ],
  "bytecode": "0x608060405260fe600660016101000a81548160ff021916908360ff160217905550336000806101000a81548173ffffffffffffffffffffffffffffffffffffffff021916908373ffffffffffffffffffffffffffffffffffffffff16021790555061540c8061006f6000396000f3fe608060405234801561001057600080fd5b50600436106101585760003560e01c80637d17f13c116100c3578063a6157bec1161007c578063a6157bec146103a9578063adff8b0f146103c5578063c181b273146103f5578063c4e91d1714610425578063c9b54a5814610441578063e445268c1461047157610158565b80637d17f13c146102d75780637e41667f1461030757806382d7afbd1461032557806388fcd194146103415780638ee242141461035d578063988aa4e71461037957610158565b8063431a65fc11610115578063431a65fc146102055780634fb2e45d1461023557806350fb95e3146102515780635b6beeb91461026d5780636fd7d2b51461029d57806375417851146102b957610158565b8063076810381461015d5780630eb7bc8f146101795780631a4c85be146101955780631b8f47fe146101b15780632d4afc7b146101cd578063369bfce4146101e9575b600080fd5b6101776004803603610172919081019061415e565b61048d565b005b610193600480360361018e919081019061405b565b610677565b005b6101af60048036036101aa919081019061401a565b61078a565b005b6101cb60048036036101c69190810190613d7c565b6108de565b005b6101e760048036036101e2919081019061415e565b610a08565b005b61020360048036036101fe919081019061405b565b610bc7565b005b61021f600480360361021a919081019061401a565b610cef565b60405161022c9190614d97565b60405180910390f35b61024f600480360361024a9190810190613d53565b610df6565b005b61026b6004803603610266919081019061405b565b610ec8565b005b6102876004803603610282919081019061401a565b61106a565b6040516102949190614e18565b60405180910390f35b6102b760048036036102b291908101906140c7565b6110e2565b005b6102c1611214565b6040516102ce9190614d97565b60405180910390f35b6102f160048036036102ec9190810190613d7c565b6113a7565b6040516102fe9190614fd3565b60405180910390f35b61030f611ba0565b60405161031c9190614d75565b60405180910390f35b61033f600480360361033a9190810190613dce565b611c87565b005b61035b6004803603610356919081019061401a565b611e25565b005b61037760048036036103729190810190613f47565b612036565b005b610393600480360361038e9190810190613ef3565b61215f565b6040516103a09190614ddb565b60405180910390f35b6103c360048036036103be9190810190613e0a565b61248d565b005b6103df60048036036103da9190810190613d7c565b6125d7565b6040516103ec9190614ff5565b60405180910390f35b61040f600480360361040a9190810190613d7c565b61292e565b60405161041c9190614dfd565b60405180910390f35b61043f600480360361043a9190810190613fc6565b612979565b005b61045b60048036036104569190810190613d7c565b612a25565b6040516104689190614db9565b60405180910390f35b61048b60048036036104869190810190613dce565b612d03565b005b6001600082815260200190815260200160002060009054906101000a900460ff16156104ee576040517f08c379a00000000000000000000000000000000000000000000000000000000081526004016104e590614f53565b60405180910390fd5b8160046000838152602001908152602001600020600082015181600001908051906020019061051e9291906132fc565b50602082015181600101908051906020019061053b9291906132fc565b5060408201518160020190805190602001906105589291906132fc565b5060608201518160030190805190602001906105759291906132fc565b5060808201518160040190805190602001906105929291906132fc565b5060a08201518160050190805190602001906105af9291906132fc565b5060c08201518160060190805190602001906105cc9291906132fc565b5060e08201518160070190805190602001906105e99291906132fc565b506101008201518160080190805190602001906106079291906132fc565b5061012082015181600901908051906020019061062592919061337c565b5061014082015181600a0190805190602001906106439291906133dc565b5090505060058190806001815401808255809150509060018203906000526020600020016000909192909190915055505050565b6000809054906101000a900473ffffffffffffffffffffffffffffffffffffffff1673ffffffffffffffffffffffffffffffffffffffff163373ffffffffffffffffffffffffffffffffffffffff1614610706576040517f08c379a00000000000000000000000000000000000000000000000000000000081526004016106fd90614ef3565b60405180910390fd5b8161071081612e16565b61074f576040517f08c379a000000000000000000000000000000000000000000000000000000000815260040161074690614f33565b60405180910390fd5b816007600061075d86612e3f565b60ff1660ff168152602001908152602001600020908051906020019061078492919061343c565b50505050565b6000809054906101000a900473ffffffffffffffffffffffffffffffffffffffff1673ffffffffffffffffffffffffffffffffffffffff163373ffffffffffffffffffffffffffffffffffffffff1614610819576040517f08c379a000000000000000000000000000000000000000000000000000000000815260040161081090614ef3565b60405180910390fd5b8061082381612e16565b610862576040517f08c379a000000000000000000000000000000000000000000000000000000000815260040161085990614f33565b60405180910390fd5b604051806020016040528060008152506007600061087f85612e3f565b60ff1660ff16815260200190815260200160002090805190602001906108a692919061343c565b506006600081819054906101000a900460ff16809291906001900391906101000a81548160ff021916908360ff160217905550505050565b6000809054906101000a900473ffffffffffffffffffffffffffffffffffffffff1673ffffffffffffffffffffffffffffffffffffffff163373ffffffffffffffffffffffffffffffffffffffff161461096d576040517f08c379a000000000000000000000000000000000000000000000000000000000815260040161096490614ef3565b60405180910390fd5b600061097882612f8d565b905060008112156109be576040517f08c379a00000000000000000000000000000000000000000000000000000000081526004016109b590614e93565b60405180910390fd5b600180600084815260200190815260200160002060006101000a81548160ff021916908315150217905550600581815481106109f657fe5b90600052602060002001600090555050565b806001600082815260200190815260200160002060009054906101000a900460ff16610a69576040517f08c379a0000000000000000000000000000000000000000000000000000000008152600401610a6090614e53565b60405180910390fd5b82600460008481526020019081526020016000206000820151816000019080519060200190610a999291906132fc565b506020820151816001019080519060200190610ab69291906132fc565b506040820151816002019080519060200190610ad39291906132fc565b506060820151816003019080519060200190610af09291906132fc565b506080820151816004019080519060200190610b0d9291906132fc565b5060a0820151816005019080519060200190610b2a9291906132fc565b5060c0820151816006019080519060200190610b479291906132fc565b5060e0820151816007019080519060200190610b649291906132fc565b50610100820151816008019080519060200190610b829291906132fc565b50610120820151816009019080519060200190610ba092919061337c565b5061014082015181600a019080519060200190610bbe9291906133dc565b50905050505050565b6000809054906101000a900473ffffffffffffffffffffffffffffffffffffffff1673ffffffffffffffffffffffffffffffffffffffff163373ffffffffffffffffffffffffffffffffffffffff1614610c56576040517f08c379a0000000000000000000000000000000000000000000000000000000008152600401610c4d90614ef3565b60405180910390fd5b8181610c628282613001565b610ca1576040517f08c379a0000000000000000000000000000000000000000000000000000000008152600401610c9890614f13565b60405180910390fd5b600884604051610cb19190614d47565b9081526020016040518091039020610cc98585613018565b81548110610cd357fe5b906000526020600020016000610ce991906134bc565b50505050565b6060600882604051610d019190614d47565b9081526020016040518091039020805480602002602001604051908101604052809291908181526020016000905b82821015610deb578382906000526020600020018054600181600116156101000203166002900480601f016020809104026020016040519081016040528092919081815260200182805460018160011615610100020316600290048015610dd75780601f10610dac57610100808354040283529160200191610dd7565b820191906000526020600020905b815481529060010190602001808311610dba57829003601f168201915b505050505081526020019060010190610d2f565b505050509050919050565b6000809054906101000a900473ffffffffffffffffffffffffffffffffffffffff1673ffffffffffffffffffffffffffffffffffffffff163373ffffffffffffffffffffffffffffffffffffffff1614610e85576040517f08c379a0000000000000000000000000000000000000000000000000000000008152600401610e7c90614ef3565b60405180910390fd5b806000806101000a81548173ffffffffffffffffffffffffffffffffffffffff021916908373ffffffffffffffffffffffffffffffffffffffff16021790555050565b8160ff600882604051610edb9190614d47565b90815260200160405180910390208054905010610f2d576040517f08c379a0000000000000000000000000000000000000000000000000000000008152600401610f2490614eb3565b60405180910390fd5b8282610f398282613001565b15610f79576040517f08c379a0000000000000000000000000000000000000000000000000000000008152600401610f7090614e73565b60405180910390fd5b6000809054906101000a900473ffffffffffffffffffffffffffffffffffffffff1673ffffffffffffffffffffffffffffffffffffffff163373ffffffffffffffffffffffffffffffffffffffff1614611008576040517f08c379a0000000000000000000000000000000000000000000000000000000008152600401610fff90614ef3565b60405180910390fd5b6008856040516110189190614d47565b908152602001604051809103902084908060018154018082558091505090600182039060005260206000200160009091929091909150908051906020019061106192919061343c565b50505050505050565b600060028260405160200161107f9190614d47565b60405160208183030381529060405260405161109b9190614d30565b602060405180830381855afa1580156110b8573d6000803e3d6000fd5b5050506040513d601f19601f820116820180604052506110db9190810190613da5565b9050919050565b82826110ee8282613001565b61112d576040517f08c379a000000000000000000000000000000000000000000000000000000000815260040161112490614f13565b60405180910390fd5b6000809054906101000a900473ffffffffffffffffffffffffffffffffffffffff1673ffffffffffffffffffffffffffffffffffffffff163373ffffffffffffffffffffffffffffffffffffffff16146111bc576040517f08c379a00000000000000000000000000000000000000000000000000000000081526004016111b390614ef3565b60405180910390fd5b826008866040516111cd9190614d47565b90815260200160405180910390206111e58787613018565b815481106111ef57fe5b90600052602060002001908051906020019061120c92919061343c565b505050505050565b606080600660009054906101000a900460ff1660ff1660405190808252806020026020018201604052801561125d57816020015b60608152602001906001900390816112485790505b509050600080905060008090505b600660019054906101000a900460ff1660ff168160ff16101561139e576000600760008360ff1660ff168152602001908152602001600020805460018160011615610100020316600290049050111561139157600760008260ff1660ff1681526020019081526020016000208054600181600116156101000203166002900480601f01602080910402602001604051908101604052809291908181526020018280546001816001161561010002031660029004801561136b5780601f106113405761010080835404028352916020019161136b565b820191906000526020600020905b81548152906001019060200180831161134e57829003601f168201915b5050505050838380600101945060ff168151811061138557fe5b60200260200101819052505b808060010191505061126b565b50819250505090565b6113af613504565b6004600083815260200190815260200160002060405180610160016040529081600082018054600181600116156101000203166002900480601f0160208091040260200160405190810160405280929190818152602001828054600181600116156101000203166002900480156114675780601f1061143c57610100808354040283529160200191611467565b820191906000526020600020905b81548152906001019060200180831161144a57829003601f168201915b50505050508152602001600182018054600181600116156101000203166002900480601f0160208091040260200160405190810160405280929190818152602001828054600181600116156101000203166002900480156115095780601f106114de57610100808354040283529160200191611509565b820191906000526020600020905b8154815290600101906020018083116114ec57829003601f168201915b50505050508152602001600282018054600181600116156101000203166002900480601f0160208091040260200160405190810160405280929190818152602001828054600181600116156101000203166002900480156115ab5780601f10611580576101008083540402835291602001916115ab565b820191906000526020600020905b81548152906001019060200180831161158e57829003601f168201915b50505050508152602001600382018054600181600116156101000203166002900480601f01602080910402602001604051908101604052809291908181526020018280546001816001161561010002031660029004801561164d5780601f106116225761010080835404028352916020019161164d565b820191906000526020600020905b81548152906001019060200180831161163057829003601f168201915b50505050508152602001600482018054600181600116156101000203166002900480601f0160208091040260200160405190810160405280929190818152602001828054600181600116156101000203166002900480156116ef5780601f106116c4576101008083540402835291602001916116ef565b820191906000526020600020905b8154815290600101906020018083116116d257829003601f168201915b50505050508152602001600582018054600181600116156101000203166002900480601f0160208091040260200160405190810160405280929190818152602001828054600181600116156101000203166002900480156117915780601f1061176657610100808354040283529160200191611791565b820191906000526020600020905b81548152906001019060200180831161177457829003601f168201915b50505050508152602001600682018054600181600116156101000203166002900480601f0160208091040260200160405190810160405280929190818152602001828054600181600116156101000203166002900480156118335780601f1061180857610100808354040283529160200191611833565b820191906000526020600020905b81548152906001019060200180831161181657829003601f168201915b50505050508152602001600782018054600181600116156101000203166002900480601f0160208091040260200160405190810160405280929190818152602001828054600181600116156101000203166002900480156118d55780601f106118aa576101008083540402835291602001916118d5565b820191906000526020600020905b8154815290600101906020018083116118b857829003601f168201915b50505050508152602001600882018054600181600116156101000203166002900480601f0160208091040260200160405190810160405280929190818152602001828054600181600116156101000203166002900480156119775780601f1061194c57610100808354040283529160200191611977565b820191906000526020600020905b81548152906001019060200180831161195a57829003601f168201915b5050505050815260200160098201805480602002602001604051908101604052809291908181526020016000905b82821015611a61578382906000526020600020018054600181600116156101000203166002900480601f016020809104026020016040519081016040528092919081815260200182805460018160011615610100020316600290048015611a4d5780601f10611a2257610100808354040283529160200191611a4d565b820191906000526020600020905b815481529060010190602001808311611a3057829003601f168201915b5050505050815260200190600101906119a5565b505050508152602001600a8201805480602002602001604051908101604052809291908181526020016000905b82821015611b9157838290600052602060002001805480602002602001604051908101604052809291908181526020016000905b82821015611b7e578382906000526020600020018054600181600116156101000203166002900480601f016020809104026020016040519081016040528092919081815260200182805460018160011615610100020316600290048015611b6a5780601f10611b3f57610100808354040283529160200191611b6a565b820191906000526020600020905b815481529060010190602001808311611b4d57829003601f168201915b505050505081526020019060010190611ac2565b5050505081526020019060010190611a8e565b50505050815250509050919050565b60606000809054906101000a900473ffffffffffffffffffffffffffffffffffffffff1673ffffffffffffffffffffffffffffffffffffffff163373ffffffffffffffffffffffffffffffffffffffff1614611c31576040517f08c379a0000000000000000000000000000000000000000000000000000000008152600401611c2890614ef3565b60405180910390fd5b6005805480602002602001604051908101604052809291908181526020018280548015611c7d57602002820191906000526020600020905b815481526020019060010190808311611c69575b5050505050905090565b816001600082815260200190815260200160002060009054906101000a900460ff16611ce8576040517f08c379a0000000000000000000000000000000000000000000000000000000008152600401611cdf90614e53565b60405180910390fd5b600180600084815260200190815260200160002060006101000a81548160ff02191690831515021790555060006001600085815260200190815260200160002060006101000a81548160ff0219169083151502179055506000801b60036000848152602001908152602001600020819055506002600084815260200190815260200160002060026000848152602001908152602001600020908054611d8e92919061355e565b50600260008481526020019081526020016000206000611dae91906135b0565b60008090505b6002600084815260200190815260200160002080549050811015611e1f578260036000600260008781526020019081526020016000208481548110611df557fe5b90600052602060002001548152602001908152602001600020819055508080600101915050611db4565b50505050565b6000809054906101000a900473ffffffffffffffffffffffffffffffffffffffff1673ffffffffffffffffffffffffffffffffffffffff163373ffffffffffffffffffffffffffffffffffffffff1614611eb4576040517f08c379a0000000000000000000000000000000000000000000000000000000008152600401611eab90614ef3565b60405180910390fd5b80611ebe81612e16565b15611efe576040517f08c379a0000000000000000000000000000000000000000000000000000000008152600401611ef590614f73565b60405180910390fd5b600660019054906101000a900460ff1660ff16600660009054906101000a900460ff1660ff161115611f65576040517f08c379a0000000000000000000000000000000000000000000000000000000008152600401611f5c90614f93565b60405180910390fd5b60008090505b600660019054906101000a900460ff1660ff168160ff161015612030576000600760008360ff1660ff168152602001908152602001600020805460018160011615610100020316600290049050116120235782600760008360ff1660ff1681526020019081526020016000209080519060200190611fea92919061343c565b506006600081819054906101000a900460ff168092919060010191906101000a81548160ff021916908360ff1602179055505050612032565b8080600101915050611f6b565b505b5050565b80600c836040516120479190614d47565b908152602001604051809103902060008201518160000190805190602001906120719291906132fc565b50602082015181600101908051906020019061208e9291906132fc565b5060408201518160020190805190602001906120ab9291906132fc565b5090505060006120bb8484613157565b9050600081121561211b57600b600085815260200190815260200160002083908060018154018082558091505090600182039060005260206000200160009091929091909150908051906020019061211492919061343c565b5050612159565b82600b6000868152602001908152602001600020828154811061213a57fe5b90600052602060002001908051906020019061215792919061343c565b505b50505050565b606060096000848152602001908152602001600020805480602002602001604051908101604052809291908181526020016000905b82821015612481578382906000526020600020906003020160405180606001604052908160008201805480602002602001604051908101604052809291908181526020016000905b82821015612298578382906000526020600020018054600181600116156101000203166002900480601f0160208091040260200160405190810160405280929190818152602001828054600181600116156101000203166002900480156122845780601f1061225957610100808354040283529160200191612284565b820191906000526020600020905b81548152906001019060200180831161226757829003601f168201915b5050505050815260200190600101906121dc565b50505050815260200160018201805480602002602001604051908101604052809291908181526020016000905b828210156123c857838290600052602060002001805480602002602001604051908101604052809291908181526020016000905b828210156123b5578382906000526020600020018054600181600116156101000203166002900480601f0160208091040260200160405190810160405280929190818152602001828054600181600116156101000203166002900480156123a15780601f10612376576101008083540402835291602001916123a1565b820191906000526020600020905b81548152906001019060200180831161238457829003601f168201915b5050505050815260200190600101906122f9565b50505050815260200190600101906122c5565b505050508152602001600282018054600181600116156101000203166002900480601f0160208091040260200160405190810160405280929190818152602001828054600181600116156101000203166002900480156124695780601f1061243e57610100808354040283529160200191612469565b820191906000526020600020905b81548152906001019060200180831161244c57829003601f168201915b50505050508152505081526020019060010190612194565b50505050905092915050565b856124978161292e565b6124d6576040517f08c379a00000000000000000000000000000000000000000000000000000000081526004016124cd90614fb3565b60405180910390fd5b83518351111561251b576040517f08c379a000000000000000000000000000000000000000000000000000000000815260040161251290614ed3565b60405180910390fd5b6009600087815260200190815260200160002060405180606001604052808681526020018581526020018481525090806001815401808255809150509060018203906000526020600020906003020160009091929091909150600082015181600001908051906020019061259092919061337c565b5060208201518160010190805190602001906125ad9291906133dc565b5060408201518160020190805190602001906125ca9291906132fc565b5050505050505050505050565b6125df6135d1565b600a60008381526020019081526020016000206040518060a0016040529081600082018054600181600116156101000203166002900480601f0160208091040260200160405190810160405280929190818152602001828054600181600116156101000203166002900480156126965780601f1061266b57610100808354040283529160200191612696565b820191906000526020600020905b81548152906001019060200180831161267957829003601f168201915b50505050508152602001600182018054600181600116156101000203166002900480601f0160208091040260200160405190810160405280929190818152602001828054600181600116156101000203166002900480156127385780601f1061270d57610100808354040283529160200191612738565b820191906000526020600020905b81548152906001019060200180831161271b57829003601f168201915b50505050508152602001600282018054600181600116156101000203166002900480601f0160208091040260200160405190810160405280929190818152602001828054600181600116156101000203166002900480156127da5780601f106127af576101008083540402835291602001916127da565b820191906000526020600020905b8154815290600101906020018083116127bd57829003601f168201915b50505050508152602001600382018054600181600116156101000203166002900480601f01602080910402602001604051908101604052809291908181526020018280546001816001161561010002031660029004801561287c5780601f106128515761010080835404028352916020019161287c565b820191906000526020600020905b81548152906001019060200180831161285f57829003601f168201915b50505050508152602001600482018054600181600116156101000203166002900480601f01602080910402602001604051908101604052809291908181526020018280546001816001161561010002031660029004801561291e5780601f106128f35761010080835404028352916020019161291e565b820191906000526020600020905b81548152906001019060200180831161290157829003601f168201915b5050505050815250509050919050565b60006001600083815260200190815260200160002060009054906101000a900460ff168061297257506000801b600360008481526020019081526020016000205414155b9050919050565b80600a600084815260200190815260200160002060008201518160000190805190602001906129a99291906132fc565b5060208201518160010190805190602001906129c69291906132fc565b5060408201518160020190805190602001906129e39291906132fc565b506060820151816003019080519060200190612a009291906132fc565b506080820151816004019080519060200190612a1d9291906132fc565b509050505050565b606080600b600084815260200190815260200160002080549050604051908082528060200260200182016040528015612a7857816020015b612a65613600565b815260200190600190039081612a5d5790505b50905060008090505b600b600085815260200190815260200160002080549050811015612cf957600c600b60008681526020019081526020016000208281548110612abf57fe5b90600052602060002001604051612ad69190614d5e565b9081526020016040518091039020604051806060016040529081600082018054600181600116156101000203166002900480601f016020809104026020016040519081016040528092919081815260200182805460018160011615610100020316600290048015612b885780601f10612b5d57610100808354040283529160200191612b88565b820191906000526020600020905b815481529060010190602001808311612b6b57829003601f168201915b50505050508152602001600182018054600181600116156101000203166002900480601f016020809104026020016040519081016040528092919081815260200182805460018160011615610100020316600290048015612c2a5780601f10612bff57610100808354040283529160200191612c2a565b820191906000526020600020905b815481529060010190602001808311612c0d57829003601f168201915b50505050508152602001600282018054600181600116156101000203166002900480601f016020809104026020016040519081016040528092919081815260200182805460018160011615610100020316600290048015612ccc5780601f10612ca157610100808354040283529160200191612ccc565b820191906000526020600020905b815481529060010190602001808311612caf57829003601f168201915b505050505081525050828281518110612ce157fe5b60200260200101819052508080600101915050612a81565b5080915050919050565b816001600082815260200190815260200160002060009054906101000a900460ff16612d64576040517f08c379a0000000000000000000000000000000000000000000000000000000008152600401612d5b90614e53565b60405180910390fd5b6000801b600360008481526020019081526020016000205414612dbc576040517f08c379a0000000000000000000000000000000000000000000000000000000008152600401612db390614e33565b60405180910390fd5b60026000848152602001908152602001600020829080600181540180825580915050906001820390600052602060002001600090919290919091505550826003600084815260200190815260200160002081905550505050565b6000600660019054906101000a900460ff1660ff16612e3483612e3f565b60ff16109050919050565b600080612e4b836132cc565b905060008090505b600660019054906101000a900460ff1660ff168160ff161015612f81576000600760008360ff1660ff168152602001908152602001600020805460018160011615610100020316600290049050118015612f65575081612f63600760008460ff1660ff1681526020019081526020016000208054600181600116156101000203166002900480601f016020809104026020016040519081016040528092919081815260200182805460018160011615610100020316600290048015612f595780601f10612f2e57610100808354040283529160200191612f59565b820191906000526020600020905b815481529060010190602001808311612f3c57829003601f168201915b50505050506132cc565b145b15612f74578092505050612f88565b8080600101915050612e53565b5060ff9150505b919050565b600080600090505b600580549050811015612fd7578260058281548110612fb057fe5b90600052602060002001541415612fca5780915050612ffc565b8080600101915050612f95565b507fffffffffffffffffffffffffffffffffffffffffffffffffffffffffffffffff90505b919050565b600060ff61300f8484613018565b10905092915050565b600080600090505b6008846040516130309190614d47565b9081526020016040518091039020805490508160ff16101561314b57613055836132cc565b61312c6008866040516130689190614d47565b90815260200160405180910390208360ff168154811061308457fe5b906000526020600020018054600181600116156101000203166002900480601f0160208091040260200160405190810160405280929190818152602001828054600181600116156101000203166002900480156131225780601f106130f757610100808354040283529160200191613122565b820191906000526020600020905b81548152906001019060200180831161310557829003601f168201915b50505050506132cc565b141561313e578060ff16915050613151565b8080600101915050613020565b5060ff90505b92915050565b600080600090505b600b600085815260200190815260200160002080549050816fffffffffffffffffffffffffffffffff1610156132a157613198836132cc565b613273600b6000878152602001908152602001600020836fffffffffffffffffffffffffffffffff16815481106131cb57fe5b906000526020600020018054600181600116156101000203166002900480601f0160208091040260200160405190810160405280929190818152602001828054600181600116156101000203166002900480156132695780601f1061323e57610100808354040283529160200191613269565b820191906000526020600020905b81548152906001019060200180831161324c57829003601f168201915b50505050506132cc565b141561329457806fffffffffffffffffffffffffffffffff169150506132c6565b808060010191505061315f565b507fffffffffffffffffffffffffffffffffffffffffffffffffffffffffffffffff90505b92915050565b6000816040516020016132df9190614d47565b604051602081830303815290604052805190602001209050919050565b828054600181600116156101000203166002900490600052602060002090601f016020900481019282601f1061333d57805160ff191683800117855561336b565b8280016001018555821561336b579182015b8281111561336a57825182559160200191906001019061334f565b5b5090506133789190613621565b5090565b8280548282559060005260206000209081019282156133cb579160200282015b828111156133ca5782518290805190602001906133ba9291906132fc565b509160200191906001019061339c565b5b5090506133d89190613646565b5090565b82805482825590600052602060002090810192821561342b579160200282015b8281111561342a57825182908051906020019061341a92919061337c565b50916020019190600101906133fc565b5b5090506134389190613672565b5090565b828054600181600116156101000203166002900490600052602060002090601f016020900481019282601f1061347d57805160ff19168380011785556134ab565b828001600101855582156134ab579182015b828111156134aa57825182559160200191906001019061348f565b5b5090506134b89190613621565b5090565b50805460018160011615610100020316600290046000825580601f106134e25750613501565b601f0160209004906000526020600020908101906135009190613621565b5b50565b60405180610160016040528060608152602001606081526020016060815260200160608152602001606081526020016060815260200160608152602001606081526020016060815260200160608152602001606081525090565b82805482825590600052602060002090810192821561359f5760005260206000209182015b8281111561359e578254825591600101919060010190613583565b5b5090506135ac919061369e565b5090565b50805460008255906000526020600020908101906135ce919061369e565b50565b6040518060a0016040528060608152602001606081526020016060815260200160608152602001606081525090565b60405180606001604052806060815260200160608152602001606081525090565b61364391905b8082111561363f576000816000905550600101613627565b5090565b90565b61366f91905b8082111561366b576000818161366291906134bc565b5060010161364c565b5090565b90565b61369b91905b80821115613697576000818161368e91906136c3565b50600101613678565b5090565b90565b6136c091905b808211156136bc5760008160009055506001016136a4565b5090565b90565b50805460008255906000526020600020908101906136e19190613646565b50565b6000813590506136f38161539b565b92915050565b600082601f83011261370a57600080fd5b813561371d61371882615044565b615017565b9150818183526020840193506020810190508360005b83811015613763578135860161374988826137e1565b845260208401935060208301925050600181019050613733565b5050505092915050565b600082601f83011261377e57600080fd5b813561379161378c8261506c565b615017565b9150818183526020840193506020810190508360005b838110156137d757813586016137bd88826137e1565b8452602084019350602083019250506001810190506137a7565b5050505092915050565b600082601f8301126137f257600080fd5b813561380561380082615094565b615017565b9150818183526020840193506020810190508360005b8381101561384b578135860161383188826138f3565b84526020840193506020830192505060018101905061381b565b5050505092915050565b600082601f83011261386657600080fd5b8135613879613874826150bc565b615017565b9150818183526020840193506020810190508360005b838110156138bf57813586016138a588826138f3565b84526020840193506020830192505060018101905061388f565b5050505092915050565b6000813590506138d8816153b2565b92915050565b6000815190506138ed816153b2565b92915050565b600082601f83011261390457600080fd5b8135613917613912826150e4565b615017565b9150808252602083016020830185838301111561393357600080fd5b61393e838284615348565b50505092915050565b600082601f83011261395857600080fd5b813561396b61396682615110565b615017565b9150808252602083016020830185838301111561398757600080fd5b613992838284615348565b50505092915050565b6000606082840312156139ad57600080fd5b6139b76060615017565b9050600082013567ffffffffffffffff8111156139d357600080fd5b6139df848285016138f3565b600083015250602082013567ffffffffffffffff8111156139ff57600080fd5b613a0b848285016138f3565b602083015250604082013567ffffffffffffffff811115613a2b57600080fd5b613a37848285016138f3565b60408301525092915050565b60006101608284031215613a5657600080fd5b613a61610160615017565b9050600082013567ffffffffffffffff811115613a7d57600080fd5b613a89848285016138f3565b600083015250602082013567ffffffffffffffff811115613aa957600080fd5b613ab5848285016138f3565b602083015250604082013567ffffffffffffffff811115613ad557600080fd5b613ae1848285016138f3565b604083015250606082013567ffffffffffffffff811115613b0157600080fd5b613b0d848285016138f3565b606083015250608082013567ffffffffffffffff811115613b2d57600080fd5b613b39848285016138f3565b60808301525060a082013567ffffffffffffffff811115613b5957600080fd5b613b65848285016138f3565b60a08301525060c082013567ffffffffffffffff811115613b8557600080fd5b613b91848285016138f3565b60c08301525060e082013567ffffffffffffffff811115613bb157600080fd5b613bbd848285016138f3565b60e08301525061010082013567ffffffffffffffff811115613bde57600080fd5b613bea848285016138f3565b6101008301525061012082013567ffffffffffffffff811115613c0c57600080fd5b613c18848285016137e1565b6101208301525061014082013567ffffffffffffffff811115613c3a57600080fd5b613c46848285016136f9565b6101408301525092915050565b600060a08284031215613c6557600080fd5b613c6f60a0615017565b9050600082013567ffffffffffffffff811115613c8b57600080fd5b613c97848285016138f3565b600083015250602082013567ffffffffffffffff811115613cb757600080fd5b613cc3848285016138f3565b602083015250604082013567ffffffffffffffff811115613ce357600080fd5b613cef848285016138f3565b604083015250606082013567ffffffffffffffff811115613d0f57600080fd5b613d1b848285016138f3565b606083015250608082013567ffffffffffffffff811115613d3b57600080fd5b613d47848285016138f3565b60808301525092915050565b600060208284031215613d6557600080fd5b6000613d73848285016136e4565b91505092915050565b600060208284031215613d8e57600080fd5b6000613d9c848285016138c9565b91505092915050565b600060208284031215613db757600080fd5b6000613dc5848285016138de565b91505092915050565b60008060408385031215613de157600080fd5b6000613def858286016138c9565b9250506020613e00858286016138c9565b9150509250929050565b60008060008060008060c08789031215613e2357600080fd5b6000613e3189828a016138c9565b9650506020613e4289828a016138c9565b955050604087013567ffffffffffffffff811115613e5f57600080fd5b613e6b89828a01613947565b945050606087013567ffffffffffffffff811115613e8857600080fd5b613e9489828a01613855565b935050608087013567ffffffffffffffff811115613eb157600080fd5b613ebd89828a0161376d565b92505060a087013567ffffffffffffffff811115613eda57600080fd5b613ee689828a01613947565b9150509295509295509295565b60008060408385031215613f0657600080fd5b6000613f14858286016138c9565b925050602083013567ffffffffffffffff811115613f3157600080fd5b613f3d85828601613947565b9150509250929050565b600080600060608486031215613f5c57600080fd5b6000613f6a868287016138c9565b935050602084013567ffffffffffffffff811115613f8757600080fd5b613f9386828701613947565b925050604084013567ffffffffffffffff811115613fb057600080fd5b613fbc8682870161399b565b9150509250925092565b60008060408385031215613fd957600080fd5b6000613fe7858286016138c9565b925050602083013567ffffffffffffffff81111561400457600080fd5b61401085828601613c53565b9150509250929050565b60006020828403121561402c57600080fd5b600082013567ffffffffffffffff81111561404657600080fd5b61405284828501613947565b91505092915050565b6000806040838503121561406e57600080fd5b600083013567ffffffffffffffff81111561408857600080fd5b61409485828601613947565b925050602083013567ffffffffffffffff8111156140b157600080fd5b6140bd85828601613947565b9150509250929050565b6000806000606084860312156140dc57600080fd5b600084013567ffffffffffffffff8111156140f657600080fd5b61410286828701613947565b935050602084013567ffffffffffffffff81111561411f57600080fd5b61412b86828701613947565b925050604084013567ffffffffffffffff81111561414857600080fd5b61415486828701613947565b9150509250925092565b6000806040838503121561417157600080fd5b600083013567ffffffffffffffff81111561418b57600080fd5b61419785828601613a43565b92505060206141a8858286016138c9565b9150509250929050565b60006141be8383614362565b905092915050565b60006141d283836144d0565b60208301905092915050565b60006141ea8383614550565b905092915050565b60006141fe8383614aad565b905092915050565b60006142128383614c40565b905092915050565b6000614225826151b1565b61422f8185615262565b9350836020820285016142418561513c565b8060005b8581101561427d578484038952815161425e85826141b2565b945061426983615214565b925060208a01995050600181019050614245565b50829750879550505050505092915050565b600061429a826151bc565b6142a48185615273565b93506142af8361514c565b8060005b838110156142e05781516142c788826141c6565b97506142d283615221565b9250506001810190506142b3565b5085935050505092915050565b60006142f8826151d2565b6143028185615295565b9350836020820285016143148561516c565b8060005b85811015614350578484038952815161433185826141de565b945061433c8361523b565b925060208a01995050600181019050614318565b50829750879550505050505092915050565b600061436d826151c7565b6143778185615284565b9350836020820285016143898561515c565b8060005b858110156143c557848403895281516143a685826141de565b94506143b18361522e565b925060208a0199505060018101905061438d565b50829750879550505050505092915050565b60006143e2826151dd565b6143ec81856152a6565b9350836020820285016143fe8561517c565b8060005b8581101561443a578484038952815161441b85826141f2565b945061442683615248565b925060208a01995050600181019050614402565b50829750879550505050505092915050565b6000614457826151e8565b61446181856152b7565b9350836020820285016144738561518c565b8060005b858110156144af57848403895281516144908582614206565b945061449b83615255565b925060208a01995050600181019050614477565b50829750879550505050505092915050565b6144ca81615312565b82525050565b6144d98161531e565b82525050565b6144e88161531e565b82525050565b60006144f9826151f3565b61450381856152c8565b9350614513818560208601615357565b80840191505092915050565b600061452a82615209565b61453481856152f5565b9350614544818560208601615357565b80840191505092915050565b600061455b826151fe565b61456581856152d3565b9350614575818560208601615357565b61457e8161538a565b840191505092915050565b6000815460018116600081146145a657600181146145cb5761460f565b607f60028304166145b781876152f5565b955060ff198316865280860193505061460f565b600282046145d981876152f5565b95506145e48561519c565b60005b82811015614606578154818901526001820191506020810190506145e7565b82880195505050505b505092915050565b60006146246021836152e4565b91507f5468617420656d706c6f79656520616c726561647920776f726b73207468657260008301527f65000000000000000000000000000000000000000000000000000000000000006020830152604082019050919050565b600061468a6029836152e4565b91507f596f75206d7573742062652061206465616c657273686970206f776e6572207460008301527f6f20646f207468697300000000000000000000000000000000000000000000006020830152604082019050919050565b60006146f0601e836152e4565b91507f54686174207375627365727669636520616c72656164792065786973747300006000830152602082019050919050565b60006147306021836152e4565b91507f4e6f206170706c69636174696f6e2065786973747320666f722074686174206960008301527f64000000000000000000000000000000000000000000000000000000000000006020830152604082019050919050565b60006147966021836152e4565b91507f4d6178696d756d207375627365727669636520616d6f756e742072656163686560008301527f64000000000000000000000000000000000000000000000000000000000000006020830152604082019050919050565b60006147fc6033836152e4565b91507f4e756d626572206f6620737562736572766963657320646f6573206e6f74206d60008301527f617463682073657276696365206c656e677468000000000000000000000000006020830152604082019050919050565b60006148626015836152e4565b91507f596f7520617265206e6f7420746865206f776e657200000000000000000000006000830152602082019050919050565b60006148a2602c836152e4565b91507f54686174207375627365727669636520646f65736e7420657869737420696e2060008301527f7468697320636f6e7465787400000000000000000000000000000000000000006020830152604082019050919050565b6000614908601b836152e4565b91507f54686174207365727669636520646f6573206e6f7420657869737400000000006000830152602082019050919050565b60006149486022836152e4565b91507f54686174206164647265737320697320616c726561647920726567697374657260008301527f65640000000000000000000000000000000000000000000000000000000000006020830152604082019050919050565b60006149ae601b836152e4565b91507f54686174207365727669636520616c72656164792065786973747300000000006000830152602082019050919050565b60006149ee6028836152e4565b91507f54686572652061726520746865206d6178696d756d206e756d626572206f662060008301527f73657276696365730000000000000000000000000000000000000000000000006020830152604082019050919050565b6000614a546028836152e4565b91507f596f75206d7573742062652061207665726966696564206465616c657220746f60008301527f20646f20746869730000000000000000000000000000000000000000000000006020830152604082019050919050565b60006060830160008301518482036000860152614aca8282614550565b91505060208301518482036020860152614ae48282614550565b91505060408301518482036040860152614afe8282614550565b9150508091505092915050565b6000610160830160008301518482036000860152614b298282614550565b91505060208301518482036020860152614b438282614550565b91505060408301518482036040860152614b5d8282614550565b91505060608301518482036060860152614b778282614550565b91505060808301518482036080860152614b918282614550565b91505060a083015184820360a0860152614bab8282614550565b91505060c083015184820360c0860152614bc58282614550565b91505060e083015184820360e0860152614bdf8282614550565b915050610100830151848203610100860152614bfb8282614550565b915050610120830151848203610120860152614c178282614362565b915050610140830151848203610140860152614c33828261421a565b9150508091505092915050565b60006060830160008301518482036000860152614c5d8282614362565b91505060208301518482036020860152614c77828261421a565b91505060408301518482036040860152614c918282614550565b9150508091505092915050565b600060a0830160008301518482036000860152614cbb8282614550565b91505060208301518482036020860152614cd58282614550565b91505060408301518482036040860152614cef8282614550565b91505060608301518482036060860152614d098282614550565b91505060808301518482036080860152614d238282614550565b9150508091505092915050565b6000614d3c82846144ee565b915081905092915050565b6000614d53828461451f565b915081905092915050565b6000614d6a8284614589565b915081905092915050565b60006020820190508181036000830152614d8f818461428f565b905092915050565b60006020820190508181036000830152614db181846142ed565b905092915050565b60006020820190508181036000830152614dd381846143d7565b905092915050565b60006020820190508181036000830152614df5818461444c565b905092915050565b6000602082019050614e1260008301846144c1565b92915050565b6000602082019050614e2d60008301846144df565b92915050565b60006020820190508181036000830152614e4c81614617565b9050919050565b60006020820190508181036000830152614e6c8161467d565b9050919050565b60006020820190508181036000830152614e8c816146e3565b9050919050565b60006020820190508181036000830152614eac81614723565b9050919050565b60006020820190508181036000830152614ecc81614789565b9050919050565b60006020820190508181036000830152614eec816147ef565b9050919050565b60006020820190508181036000830152614f0c81614855565b9050919050565b60006020820190508181036000830152614f2c81614895565b9050919050565b60006020820190508181036000830152614f4c816148fb565b9050919050565b60006020820190508181036000830152614f6c8161493b565b9050919050565b60006020820190508181036000830152614f8c816149a1565b9050919050565b60006020820190508181036000830152614fac816149e1565b9050919050565b60006020820190508181036000830152614fcc81614a47565b9050919050565b60006020820190508181036000830152614fed8184614b0b565b905092915050565b6000602082019050818103600083015261500f8184614c9e565b905092915050565b6000604051905081810181811067ffffffffffffffff8211171561503a57600080fd5b8060405250919050565b600067ffffffffffffffff82111561505b57600080fd5b602082029050602081019050919050565b600067ffffffffffffffff82111561508357600080fd5b602082029050602081019050919050565b600067ffffffffffffffff8211156150ab57600080fd5b602082029050602081019050919050565b600067ffffffffffffffff8211156150d357600080fd5b602082029050602081019050919050565b600067ffffffffffffffff8211156150fb57600080fd5b601f19601f8301169050602081019050919050565b600067ffffffffffffffff82111561512757600080fd5b601f19601f8301169050602081019050919050565b6000819050602082019050919050565b6000819050602082019050919050565b6000819050602082019050919050565b6000819050602082019050919050565b6000819050602082019050919050565b6000819050602082019050919050565b60008190508160005260206000209050919050565b600081519050919050565b600081519050919050565b600081519050919050565b600081519050919050565b600081519050919050565b600081519050919050565b600081519050919050565b600081519050919050565b600081519050919050565b6000602082019050919050565b6000602082019050919050565b6000602082019050919050565b6000602082019050919050565b6000602082019050919050565b6000602082019050919050565b600082825260208201905092915050565b600082825260208201905092915050565b600082825260208201905092915050565b600082825260208201905092915050565b600082825260208201905092915050565b600082825260208201905092915050565b600081905092915050565b600082825260208201905092915050565b600082825260208201905092915050565b600081905092915050565b600061530b82615328565b9050919050565b60008115159050919050565b6000819050919050565b600073ffffffffffffffffffffffffffffffffffffffff82169050919050565b82818337600083830152505050565b60005b8381101561537557808201518184015260208101905061535a565b83811115615384576000848401525b50505050565b6000601f19601f8301169050919050565b6153a481615300565b81146153af57600080fd5b50565b6153bb8161531e565b81146153c657600080fd5b5056fea365627a7a723158206510e941bac3b08ce73234a5fc01c339f8dddaca53bd07d10aee26c85cf3895a6c6578706572696d656e74616cf564736f6c634300050c0040",
  "source": "pragma solidity ^0.5.11;\npragma experimental ABIEncoderV2;\n\nimport \"./ServiceHandler.sol\";\n\ncontract UserContract is ServiceHandler {\n\n    struct RecordInternal {\n        string[] services;\n        string[][] subservices;\n        string comment;\n    }\n    struct UserInfo {\n        string firstName;\n        string lastName;\n        string adr;\n        string phNo;\n        string email;\n    }\n    struct CarInfo{\n        string brand;\n        string model;\n        string year;\n    }\n\n    //------------------------------------------------------------_Records_---------------------------------------------\n\n    mapping(bytes32 => RecordInternal[]) private userRecords;\n    mapping(bytes32 => UserInfo) private userInfoRecords;\n    mapping(bytes32 => string[]) private userCars;\n    mapping(string => CarInfo) private carDetails;\n\n    function editUserInfo(bytes32 userId, UserInfo memory info) public {\n        userInfoRecords[userId] = info;\n    }\n\n    function getUserInfo(bytes32 userId) public view returns(UserInfo memory) {\n        return userInfoRecords[userId];\n    }\n\n    function editCarDetails(bytes32 userId, string memory noPlate, CarInfo memory carInfo) public{\n        carDetails[noPlate] = carInfo;\n        int index = getCarIndex(userId,noPlate);\n        if(index < 0){\n            userCars[userId].push(noPlate);\n        }\n        else{\n            userCars[userId][uint(index)] = noPlate;\n        }\n    }\n\n    function getCarIndex(bytes32 userId, string memory noPlate) internal view returns (int){\n        for(uint128 i = 0; i < userCars[userId].length; i++) {\n            if(encode(userCars[userId][i]) == encode(noPlate)) return i;\n        }\n        return -1;\n    }\n\n    function getCars(bytes32 userId) public view returns(CarInfo[] memory){\n        CarInfo[] memory cars = new CarInfo[](userCars[userId].length);\n        for(uint i = 0; i < userCars[userId].length;i++) {\n            cars[i] = carDetails[userCars[userId][i]];\n        }\n        return cars;\n    }\n\n    function insertRecord(bytes32 dealerId, bytes32 id, string memory noPlate,\n     string[] memory services, string[][] memory subservices, string memory comment)\n        public verified(dealerId) {\n        require(subservices.length <= services.length,\"Number of subservices does not match service length\");\n        userRecords[id].push(RecordInternal(services,subservices,comment));\n    }\n\n    //TODO Change records to be car specific and not user specific\n\n    function getRecords(bytes32 id, string memory noPlate) public view returns (RecordInternal[] memory) {\n        return userRecords[id];\n    }\n\n}\n",
  "sourcePath": "/Users/mapring/Documents/school/blockchain/blockchain-project-2019/contracts/UserContract.sol",
  "compiler": {
    "name": "solc",
    "version": "0.5.12+commit.7709ece9.Emscripten.clang"
  },
  "schemaVersion": "3.0.19",
  "updatedAt": "2019-11-22T16:29:47.334Z",
  "networkType": "ethereum",
  "devdoc": {
    "methods": {}
  },
  "userdoc": {
    "methods": {}
  }
}